:0420000086EF3CF03B
:10790C00000EF86E0001C1EF3EF0030E826E000E09
:10791C001B6E000E1C6E200E1D6E410E1E6E52EC68
:10792C003DF0000E826E000E1B6E000E1C6E200EC3
:10793C001D6E410E1E6E52EC3DF0120081A002D065
:10794C00808001D0809081A202D0808201D0809270
:10795C0081A402D0808401D0809481A602D080863C
:10796C0001D0809681A802D0808801D08098120026
:10797C00030E826E9A0E1B6E990E1C6E990E1D6E66
:10798C003E0E1E6E52EC3DF0020E826E000E1B6E11
:10799C00000E1C6E700E1D6E410E1E6E52EC3DF0F4
:1079AC00000E826E000E1B6E000E1C6EA00E1D6E65
:1079BC00410E1E6E52EC3DF01200030E826E9A0EBA
:1079CC001B6E990E1C6E990E1D6E3E0E1E6E52ECA9
:1079DC003DF0010E826E000E1B6E000E1C6E700EC2
:1079EC001D6E410E1E6E52EC3DF0000E826E000EAE
:1079FC001B6E000E1C6EA00E1D6E410E1E6E52EC08
:107A0C003DF01200030E826E9A0E1B6E990E1C6EC8
:107A1C00990E1D6E3E0E1E6E52EC3DF0020E826EE5
:107A2C00000E1B6E000E1C6EC00E1D6E400E1E6EE8
:107A3C0052EC3DF0000E826E000E1B6E000E1C6EA2
:107A4C00400E1D6E410E1E6E52EC3DF01200030EE8
:107A5C00826E9A0E1B6E990E1C6E990E1D6E3E0E4A
:107A6C001E6E52EC3DF0010E826E000E1B6E000E6F
:107A7C001C6EC00E1D6E400E1E6E52EC3DF0000EC4
:107A8C00826E000E1B6E000E1C6E400E1D6E410EA3
:107A9C001E6E52EC3DF01200000E206E000E1F6E9A
:107AAC0011D0000E226E000E216E22BE06D0B80E32
:107ABC00215C0B0E2258D8B003D0214A222AF5D7CC
:107ACC001F4A202A1FC001F020C002F0000E02BE87
:107ADC00FF0E036E046E010E19EC3EF001C00FF0A8
:107AEC0002C010F003C011F004C012F01BC013F060
:107AFC001CC014F01DC015F01EC016F089EC3DF032
:107B0C00D8B01200CED7000E0F14176E000E101442
:107B1C00186E800E1114196E7F0E12141A6E1750F7
:107B2C00181019101A10D8A408D0000E0F6E000EE1
:107B3C00106E000E116E000E126E000E1314176EE6
:107B4C00000E1414186E800E1514196E7F0E161478
:107B5C001A6E1750181019101A10D8A408D0000E4D
:107B6C00136E000E146E000E156E000E166E12AE15
:107B7C001DD00FC017F010C018F011C019F012C0B2
:107B8C001AF0171E181E191E1A1E172A000E18227C
:107B9C0019221A22000E17240F6E000E1820106ED8
:107BAC00000E1920116E800E1A20126E16AE1DD00A
:107BBC0013C017F014C018F015C019F016C01AF045
:107BCC00171E181E191E1A1E172A000E182219220B
:107BDC001A22000E1724136E000E1820146E000EBD
:107BEC001920156E800E1A20166E000E0F1A000E3C
:107BFC00101A000E111A800E121A000E131A000E13
:107C0C00141A000E151A800E161A13500F5C14500D
:107C1C0010581550115816501258D8B002D0D89090
:107C2C001200D8801200096E0950D8A404AE1AD0E4
:107C3C0001C005F002C006F003C007F004C008F054
:107C4C00051E061E071E081E052A000E0622072208
:107C5C00082205C00BF006C00CF007C00DF008C0E0
:107C6C000EF008D001C00BF002C00CF003C00DF0F8
:107C7C0004C00EF00150021003100410D8A409D057
:107C8C00000E016E000E026E000E036E000E046EEE
:107C9C001200960E0A6E06D00A2AD8900E320D32B9
:107CAC000C320B32000E0B14056E000E0C14066E0B
:107CBC00000E0D14076EFE0E0E14086E0550061005
:107CCC0007100810D8B40DD0E7D70A2A010E0B26DE
:107CDC00000E0C220D220E22D8900E320D320C32D8
:107CEC000B32000E0B14056E000E0C14066E000EFB
:107CFC000D14076EFF0E0E14086E055006100710BB
:107D0C000810D8B407D0E1D70A06D8900B360C3639
:107D1C000D360E360DBE03D0020E0A60F5D70AB032
:107D2C0008D0FF0E0B16FF0E0C167F0E0D16FF0E55
:107D3C000E16D8900A320AC005F0066A076A086A5D
:107D4C0005C008F0076A066A056A05500B12065052
:107D5C000C1207500D1208500E120950D8A404AE84
:107D6C0001D00E8E0BC001F00CC002F00DC003F060
:107D7C000EC004F0120025682668236824680F0ED4
:107D8C00C16E200E926E9368000E946E000E806E83
:107D9C00000E816E000E826E02D0A4EC3CF080BA14
:107DAC00FCD7A4EC3CF0C4D0020E23182410D8A4A9
:107DBC0003D0E3EC3CF0F5D723042410D8A403D073
:107DCC00BEEC3CF0EED78BEC3CF0EBD7000E266E05
:107DDC00000E256EBEEC3CF006D0000E266E000E9A
:107DEC00256E08EC3DF0000E246E010E1BD0250410
:107DFC002610D8A406D02DEC3DF0000E246E020EF9
:107E0C0011D0BEEC3CF0EFD7000E266E000E256EA6
:107E1C008BEC3CF06AD0000E266E000E256E08EC42
:107E2C003DF0E1D7236EBDD725502610D8A403D042
:107E3C0008EC3DF0D8D7E3EC3CF0000E246E020EBB
:107E4C0064D0000E266E010E256EABD7000E266E8A
:107E5C00000E256E2DEC3DF0D0D7000E266E000ED8
:107E6C00256E2DEC3DF0C9D7000E266E000E256E4A
:107E7C008BEC3CF03AD0000E266E010E256EE3EC36
:107E8C003CF0BBD7000E266E000E256EE3EC3CF0EA
:107E9C00B4D7000E266E010E256E8BEC3CF025D06F
:107EAC00000E266E010E256E2DEC3DF0A6D7000EB1
:107EBC00266E010E256E2DEC3DF09FD72504261065
:107ECC00D8A403D008EC3DF08ED7E3EC3CF095D76A
:107EDC00000E266E010E256E08EC3DF084D7000EC8
:107EEC00266E010E256E8BEC3CF0000E246E000EFF
:107EFC0099D725502610D8A403D02DEC3DF07DD772
:107F0C00BEEC3CF0000E246E010E236E9AD7000ED0
:107F1C00266E010E256E08EC3DF065D7000E266E20
:107F2C00010E256EBEEC3CF05ED78BEC3CF039D7E5
:107F3C008150000AD8B438D7010AD8B447D7030AFD
:107F4C00D8B44BD7010AD8B452D7070AD8B45CD7E7
:107F5C00010AD8B426D7030AD8B45DD7010AD8B41D
:107F6C0063D70F0AD8B472D7010AD8B41AD7030A48
:107F7C00D8B417D7010AD8B414D7070AD8B46DD718
:107F8C00010AD8B40ED7030AD8B46ED7010AD8B4F4
:107F9C0072D71F0AD8B476D7010AD8B47AD7030A95
:107FAC00D8B4FFD6010AD8B47BD7070AD8B4F9D60F
:107FBC00010AD8B4F6D6030AD8B4F3D6010AD8B459
:107FCC0076D70F0AD8B47AD7010AD8B481D7030A66
:107FDC00D8B4E7D6010AD8B482D7070AD8B489D75F
:107FEC00010AD8B494D7030AD8B498D7010AD8B4E4
:047FFC00DBD69BD75E
:020000040020DA
:08000000FFFFFFFFFFFFFFFF00
:020000040030CA
:0E00000000051F1FFF8385FF0FC00FE00F409C
:00000001FF
