:0420000013EF3DF0AD
:107A2600000EF86E00014EEF3FF0030E826E000E60
:107A36001B6E000E1C6E000E1D6E410E1E6EDFECE0
:107A46003DF0000E826E000E1B6E000E1C6E480E80
:107A56001D6E420E1E6EDFEC3DF0120081A002D0BC
:107A6600808001D0809081A202D0808201D0809255
:107A760081A402D0808401D0809481A602D0808621
:107A860001D0809681A802D0808801D0809812000B
:107A9600030E826E9A0E1B6E990E1C6E990E1D6E4B
:107AA6003E0E1E6EDFEC3DF0020E826E000E1B6E69
:107AB600000E1C6E200E1D6E410E1E6EDFEC3DF09C
:107AC600000E826E000E1B6E000E1C6E480E1D6EA2
:107AD600420E1E6EDFEC3DF01200030E826E9A0E11
:107AE6001B6E990E1C6E990E1D6E3E0E1E6EDFEC01
:107AF6003DF0010E826E000E1B6E000E1C6E200EF7
:107B06001D6E410E1E6EDFEC3DF0000E826E000E05
:107B16001B6E000E1C6E480E1D6E420E1E6EDFECB6
:107B26003DF01200030E826E9A0E1B6E990E1C6EAD
:107B3600990E1D6E3E0E1E6EDFEC3DF0020E826E3D
:107B4600000E1B6E000E1C6E000E1D6E400E1E6E8D
:107B5600DFEC3DF0000E826E000E1B6E000E1C6EFA
:107B6600480E1D6E420E1E6EDFEC3DF01200030E37
:107B7600826E9A0E1B6E990E1C6E990E1D6E3E0E2F
:107B86001E6EDFEC3DF0010E826E000E1B6E000EC7
:107B96001C6E000E1D6E400E1E6EDFEC3DF0000EDC
:107BA600826E000E1B6E000E1C6E480E1D6E420E7F
:107BB6001E6EDFEC3DF01200000E206E000E1F6EF2
:107BC60011D0000E226E000E216E22BE06D0B80E17
:107BD600215C0B0E2258D8B003D0214A222AF5D7B1
:107BE6001F4A202A1FC001F020C002F0000E02BE6C
:107BF600FF0E036E046E010EA6EC3EF001C00FF000
:107C060002C010F003C011F004C012F01BC013F044
:107C16001CC014F01DC015F01EC016F016EC3EF088
:107C2600D8B01200CED7000E0F14176E000E101427
:107C3600186E800E1114196E7F0E12141A6E1750DC
:107C4600181019101A10D8A408D0000E0F6E000EC6
:107C5600106E000E116E000E126E000E1314176ECB
:107C6600000E1414186E800E1514196E7F0E16145D
:107C76001A6E1750181019101A10D8A408D0000E32
:107C8600136E000E146E000E156E000E166E12AEFA
:107C96001DD00FC017F010C018F011C019F012C097
:107CA6001AF0171E181E191E1A1E172A000E182261
:107CB60019221A22000E17240F6E000E1820106EBD
:107CC600000E1920116E800E1A20126E16AE1DD0EF
:107CD60013C017F014C018F015C019F016C01AF02A
:107CE600171E181E191E1A1E172A000E18221922F0
:107CF6001A22000E1724136E000E1820146E000EA2
:107D06001920156E800E1A20166E000E0F1A000E20
:107D1600101A000E111A800E121A000E131A000EF7
:107D2600141A000E151A800E161A13500F5C1450F2
:107D360010581550115816501258D8B002D0D89075
:107D46001200D8801200096E0950D8A404AE1AD0C9
:107D560001C005F002C006F003C007F004C008F039
:107D6600051E061E071E081E052A000E06220722ED
:107D7600082205C00BF006C00CF007C00DF008C0C5
:107D86000EF008D001C00BF002C00CF003C00DF0DD
:107D960004C00EF00150021003100410D8A409D03C
:107DA600000E016E000E026E000E036E000E046ED3
:107DB6001200960E0A6E06D00A2AD8900E320D329E
:107DC6000C320B32000E0B14056E000E0C14066EF0
:107DD600000E0D14076EFE0E0E14086E05500610EA
:107DE60007100810D8B40DD0E7D70A2A010E0B26C3
:107DF600000E0C220D220E22D8900E320D320C32BD
:107E06000B32000E0B14056E000E0C14066E000EDF
:107E16000D14076EFF0E0E14086E0550061007109F
:107E26000810D8B407D0E1D70A06D8900B360C361E
:107E36000D360E360DBE03D0020E0A60F5D70AB017
:107E460008D0FF0E0B16FF0E0C167F0E0D16FF0E3A
:107E56000E16D8900A320AC005F0066A076A086A42
:107E660005C008F0076A066A056A05500B12065037
:107E76000C1207500D1208500E120950D8A404AE69
:107E860001D00E8E0BC001F00CC002F00DC003F045
:107E96000EC004F012000F0EC16E200E926E936893
:107EA600000E946E000E806E000E816E000E826EC5
:107EB60002D031EC3DF080BAFCD731EC3DF03BD03E
:107EC60018EC3DF0FAD770EC3DF0F7D7BAEC3DF080
:107ED600F4D7BAEC3DF0F1D718EC3DF0EED7BAEC9A
:107EE6003DF0EBD795EC3DF0E8D795EC3DF0E5D7C6
:107EF60018EC3DF0E2D74BEC3DF0DFD74BEC3DF014
:107F0600DCD718EC3DF0D9D74BEC3DF0D6D795EC45
:107F16003DF0D3D718EC3DF0D0D7BAEC3DF0CDD735
:107F2600BAEC3DF0CAD770EC3DF018EC3DF0C5D781
:107F360018EC3DF0C2D78150000AD8B4C1D7010A67
:107F4600D8B4C1D7030AD8B4C1D7010AD8B4C1D7A7
:107F5600070AD8B4C1D7010AD8B4AFD7030AD8B430
:107F6600BED7010AD8B4BED70F0AD8B4BED7010A05
:107F7600D8B4A3D7030AD8B4A0D7010AD8B49DD7DA
:107F8600070AD8B49AD7010AD8B497D7030AD8B43F
:107F9600AFD7010AD8B4AFD71F0AD8B4AFD7010AF2
:107FA600D8B4AFD7030AD8B488D7010AD8B485D7CE
:107FB600070AD8B482D7010AD8B47FD7030AD8B43F
:107FC6007CD7010AD8B4A0D70F0AD8B4A0D7010A23
:107FD600D8B473D7030AD8B470D7010AD8B49AD7DD
:107FE600070AD8B49AD7010AD8B49AD7030AD8B4DC
:0A7FF6009AD7010AD8B499D79BD797
:020000040020DA
:08000000FFFFFFFFFFFFFFFF00
:020000040030CA
:0E00000000051F1FFF8385FF0FC00FE00F409C
:00000001FF
