:04200000F3EF3CF0CE
:1079E600000EF86E00012EEF3FF0030E826E000EC1
:1079F6001B6E000E1C6E000E1D6E410E1E6EBFEC41
:107A06003DF0000E826E000E1B6E000E1C6EA00E68
:107A16001D6E410E1E6EBFEC3DF0120081A002D01D
:107A2600808001D0809081A202D0808201D0809295
:107A360081A402D0808401D0809481A602D0808661
:107A460001D0809681A802D0808801D0809812004B
:107A5600030E826E9A0E1B6E990E1C6E990E1D6E8B
:107A66003E0E1E6EBFEC3DF0020E826E000E1B6EC9
:107A7600000E1C6EA00E1D6E400E1E6EBFEC3DF07D
:107A8600000E826E000E1B6E000E1C6EA00E1D6E8A
:107A9600410E1E6EBFEC3DF01200030E826E9A0E72
:107AA6001B6E990E1C6E990E1D6E3E0E1E6EBFEC61
:107AB6003DF0010E826E000E1B6E000E1C6EA00EB7
:107AC6001D6E400E1E6EBFEC3DF0000E826E000E67
:107AD6001B6E000E1C6EA00E1D6E410E1E6EBFECC0
:107AE6003DF01200030E826E9A0E1B6E990E1C6EEE
:107AF600990E1D6E3E0E1E6EBFEC3DF0020E826E9E
:107B0600000E1B6E000E1C6E000E1D6E400E1E6ECD
:107B1600BFEC3DF0000E826E000E1B6E000E1C6E5A
:107B2600A00E1D6E410E1E6EBFEC3DF01200030E40
:107B3600826E9A0E1B6E990E1C6E990E1D6E3E0E6F
:107B46001E6EBFEC3DF0010E826E000E1B6E000E27
:107B56001C6E000E1D6E400E1E6EBFEC3DF0000E3C
:107B6600826E000E1B6E000E1C6EA00E1D6E410E68
:107B76001E6EBFEC3DF01200000E206E000E1F6E52
:107B860011D0000E226E000E216E22BE06D0B80E57
:107B9600215C0B0E2258D8B003D0214A222AF5D7F1
:107BA6001F4A202A1FC001F020C002F0000E02BEAC
:107BB600FF0E036E046E010E86EC3EF001C00FF060
:107BC60002C010F003C011F004C012F01BC013F085
:107BD6001CC014F01DC015F01EC016F0F6EC3DF0EA
:107BE600D8B01200CED7000E0F14176E000E101468
:107BF600186E800E1114196E7F0E12141A6E17501D
:107C0600181019101A10D8A408D0000E0F6E000E06
:107C1600106E000E116E000E126E000E1314176E0B
:107C2600000E1414186E800E1514196E7F0E16149D
:107C36001A6E1750181019101A10D8A408D0000E72
:107C4600136E000E146E000E156E000E166E12AE3A
:107C56001DD00FC017F010C018F011C019F012C0D7
:107C66001AF0171E181E191E1A1E172A000E1822A1
:107C760019221A22000E17240F6E000E1820106EFD
:107C8600000E1920116E800E1A20126E16AE1DD02F
:107C960013C017F014C018F015C019F016C01AF06A
:107CA600171E181E191E1A1E172A000E1822192230
:107CB6001A22000E1724136E000E1820146E000EE2
:107CC6001920156E800E1A20166E000E0F1A000E61
:107CD600101A000E111A800E121A000E131A000E38
:107CE600141A000E151A800E161A13500F5C145033
:107CF60010581550115816501258D8B002D0D890B6
:107D06001200D8801200096E0950D8A404AE1AD009
:107D160001C005F002C006F003C007F004C008F079
:107D2600051E061E071E081E052A000E062207222D
:107D3600082205C00BF006C00CF007C00DF008C005
:107D46000EF008D001C00BF002C00CF003C00DF01D
:107D560004C00EF00150021003100410D8A409D07C
:107D6600000E016E000E026E000E036E000E046E13
:107D76001200960E0A6E06D00A2AD8900E320D32DE
:107D86000C320B32000E0B14056E000E0C14066E30
:107D9600000E0D14076EFE0E0E14086E055006102A
:107DA60007100810D8B40DD0E7D70A2A010E0B2603
:107DB600000E0C220D220E22D8900E320D320C32FD
:107DC6000B32000E0B14056E000E0C14066E000E20
:107DD6000D14076EFF0E0E14086E055006100710E0
:107DE6000810D8B407D0E1D70A06D8900B360C365F
:107DF6000D360E360DBE03D0020E0A60F5D70AB058
:107E060008D0FF0E0B16FF0E0C167F0E0D16FF0E7A
:107E16000E16D8900A320AC005F0066A076A086A82
:107E260005C008F0076A066A056A05500B12065077
:107E36000C1207500D1208500E120950D8A404AEA9
:107E460001D00E8E0BC001F00CC002F00DC003F085
:107E56000EC004F012000F0EC16E200E926E9368D3
:107E6600000E946E000E806E000E816E000E826E05
:107E760002D011EC3DF080BAFCD711EC3DF081A0A8
:107E860002D0010E01D0000E300F236E81A202D067
:107E9600010E01D0000E300F246E81A402D0010E17
:107EA60001D0000E300F256E81A602D0010E01D042
:107EB600000E300F266E81A802D0010E01D0000EF2
:107EC600300F276E38D0F8EC3CF0D7D750EC3DF0A9
:107ED600D4D79AEC3DF0D1D79AEC3DF0CED7F8EC5A
:107EE6003CF0CBD79AEC3DF0C8D775EC3DF0C5D742
:107EF60075EC3DF0C2D7F8EC3CF0BFD72BEC3DF06B
:107F0600BCD72BEC3DF0B9D7F8EC3CF0B6D72BEC50
:107F16003DF0B3D775EC3DF0B0D7F8EC3CF0ADD7FB
:107F26009AEC3DF0AAD79AEC3DF0A7D750EC3DF07D
:107F3600F8EC3CF0A2D78150000AD8B4C4D7010AA5
:107F4600D8B4C4D7030AD8B4C4D7010AD8B4C4D79E
:107F5600070AD8B4C4D7010AD8B48FD7030AD8B44D
:107F6600C1D7010AD8B4C1D70F0AD8B4C1D7010AFC
:107F7600D8B483D7030AD8B480D7010AD8B47DD73A
:107F8600070AD8B47AD7010AD8B477D7030AD8B47F
:107F9600B2D7010AD8B4B2D71F0AD8B4B2D7010AE9
:107FA600D8B4B2D7030AD8B468D7010AD8B465D70B
:107FB600070AD8B462D7010AD8B45FD7030AD8B47F
:107FC6005CD7010AD8B4A3D70F0AD8B4A3D7010A3D
:107FD600D8B453D7030AD8B450D7010AD8B49DD71A
:107FE600070AD8B49DD7010AD8B49DD7030AD8B4D6
:0A7FF6009DD7010AD8B49CD740D7EC
:020000040020DA
:08000000FFFFFFFFFFFFFFFF00
:020000040030CA
:0E00000000051F1FFF8385FF0FC00FE00F409C
:00000001FF
