:0420000058EF3FF066
:107EB0000001D9EF3FF0030E826E000E026E080E35
:107EC000016EB8EC3FF0000E826E000E026E140ED2
:107ED000016EB8EC3FF01200030E826E000E026ECF
:107EE000030E016EB8EC3FF0010E826E000E026EC2
:107EF000050E016EB8EC3FF0000E826E000E026EB1
:107F0000140E016EB8EC3FF01200030E826E000EEC
:107F1000026E030E016EB8EC3FF0020E826E000E90
:107F2000026E050E016EB8EC3FF0000E826E000E80
:107F3000026E140E016EB8EC3FF0120081A002D068
:107F4000808001D0809081A202D0808201D0809276
:107F500081A402D0808401D0809481A602D0808642
:107F600001D0809681A802D0808801D0809812002C
:107F7000000E056E000E046E11D0000E076E000E8E
:107F8000066E07BE06D0B80E065C0B0E0758D8B0BA
:107F900003D0064A072AF5D7044A052A0150045C93
:107FA0000550800A036E0250800A0358D8B01200B0
:107FB000E4D70F0EC16E200E926E9368000E946E81
:107FC000000E806E000E816E000E826E02D09EEC5E
:107FD0003FF080BAFCD79EEC3FF081B081A405D081
:107FE00081B803D06CEC3FF0F6D781A081A405D016
:107FF00081A803D085EC3FF0EED75BEC3FF0EBD7E8
:020000040020DA
:08000000FFFFFFFFFFFFFFFF00
:020000040030CA
:0E00000000051F1FFF8385FF0FC00FE00F409C
:00000001FF
