:0420000033EF3EF08C
:107C6600000EF86E0001F9EF3EF0030E826E000E74
:107C7600026E000E016ED8EC3EF0000E826E000E13
:107C8600026E140E016ED8EC3EF01200030E826EE8
:107C9600000E026E010E016ED8EC3EF0000E826EF2
:107CA600000E026E140E016ED8EC3EF01200030EAA
:107CB600826E000E026E000E016ED8EC3EF0020ED1
:107CC600826E000E026E140E016ED8EC3EF0000EAF
:107CD600826E000E026E140E016ED8EC3EF012009B
:107CE600030E826E000E026E000E016ED8EC3EF0A0
:107CF600010E826E000E026E140E016ED8EC3EF07E
:107D0600000E826E000E026E140E016ED8EC3EF06E
:107D16001200030E826E000E026E000E016ED8EC8B
:107D26003EF0020E826E000E026E0A0E016ED8EC56
:107D36003EF0000E826E000E026E140E016ED8EC3E
:107D46003EF01200030E826E000E026E000E016EF1
:107D5600D8EC3EF0010E826E000E026E0A0E016E27
:107D6600D8EC3EF0000E826E000E026E140E016E0E
:107D7600D8EC3EF0120081A002D0808001D0809025
:107D860081A202D0808201D0809281A402D0808418
:107D960001D0809481A602D0808601D0809681A8E9
:107DA60002D0808801D080981200000E056E000E69
:107DB600046E11D0000E076E000E066E07BE06D0CA
:107DC600B80E065C0B0E0758D8B003D0064A072A31
:107DD600F5D7044A052A0150045C0550800A036E53
:107DE6000250800A0358D8B01200E4D70F0EC16EB5
:107DF600200E926E9368000E946E000E806E000E3A
:107E0600816E000E826E02D0BEEC3EF080BAFCD7C8
:107E1600BEEC3EF0E6D081B418D081A681B803D07E
:107E260049EC3EF0F5D781A681A803D073EC3EF06D
:107E3600EFD781B681B803D0A5EC3EF0E9D781B67D
:107E460081A8E6D773EC3EF0E3D781A4E1D781A6FB
:107E560081B803D049EC3EF0DBD781A681A803D0D8
:107E660038EC3EF0D5D781B681B803D0A5EC3EF00C
:107E7600CFD781B681A8CCD75AEC3EF0C9D781B40A
:107E860018D081A681B803D08CEC3EF0C1D781A66C
:107E960081A803D038EC3EF0BBD781B681B803D0B9
:107EA60038EC3EF0B5D781B681A8B2D738EC3EF0B3
:107EB600AFD781A4ADD781A681B803D08CEC3EF0B4
:107EC600A7D781A681A803D038EC3EF0A1D781B60A
:107ED60081B803D049EC3EF09BD781B681A898D7EC
:107EE6005AEC3EF095D781A202D0010E01D0000EC9
:107EF600000AD8B490D7010AD8B4C1D789D781B4BB
:107F060018D081A681B803D05AEC3EF081D781A65D
:107F160081A803D049EC3EF07BD781B681B803D067
:107F260038EC3EF075D781B681A872D78CEC3EF05E
:107F36006FD781A46DD781A681B803D038EC3EF007
:107F460067D781A681A803D038EC3EF061D781B609
:107F560081B803D038EC3EF05BD781B681A858D7FC
:107F66008CEC3EF055D781B418D081A681B803D0E9
:107F76005AEC3EF04DD781A681A803D0A5EC3EF081
:107F860047D781B681B803D038EC3EF041D781B6E9
:107F960081A83ED749EC3EF03BD781A439D781A6CC
:107FA60081B803D073EC3EF033D781A681A803D005
:107FB600A5EC3EF02DD781A602D081A829D781B69F
:107FC60081A826D749EC3EF023D781A202D0010E24
:107FD60001D0000E000AD8B492D7010AD8B4C3D78C
:107FE60017D781A002D0010E01D0000E000AD8B426
:0A7FF6007AD7010AD8B4E9D70BD7F7
:020000040020DA
:08000000FFFFFFFFFFFFFFFF00
:020000040030CA
:0E00000000051F1FFF8385FF0FC00FE00F409C
:00000001FF
