:04200000FEEF3CF0C3
:1079FC00000EF86E000139EF3FF0030E826E000EA0
:107A0C001B6E000E1C6E200E1D6E410E1E6ECAECFF
:107A1C003DF0000E826E000E1B6E000E1C6EA00E52
:107A2C001D6E410E1E6ECAEC3DF0120081A002D0FC
:107A3C00808001D0809081A202D0808201D080927F
:107A4C0081A402D0808401D0809481A602D080864B
:107A5C0001D0809681A802D0808801D08098120035
:107A6C00030E826E9A0E1B6E990E1C6E990E1D6E75
:107A7C003E0E1E6ECAEC3DF0020E826E000E1B6EA8
:107A8C00000E1C6E700E1D6E410E1E6ECAEC3DF08B
:107A9C00000E826E000E1B6E000E1C6EA00E1D6E74
:107AAC00410E1E6ECAEC3DF01200030E826E9A0E51
:107ABC001B6E990E1C6E990E1D6E3E0E1E6ECAEC40
:107ACC003DF0010E826E000E1B6E000E1C6E700ED1
:107ADC001D6E410E1E6ECAEC3DF0000E826E000E45
:107AEC001B6E000E1C6EA00E1D6E410E1E6ECAEC9F
:107AFC003DF01200030E826E9A0E1B6E990E1C6ED8
:107B0C00990E1D6E3E0E1E6ECAEC3DF0020E826E7C
:107B1C00000E1B6E000E1C6E000E1D6E410E1E6EB6
:107B2C00CAEC3DF0000E826E000E1B6E000E1C6E39
:107B3C00A00E1D6E410E1E6ECAEC3DF01200030E1F
:107B4C00826E9A0E1B6E990E1C6E990E1D6E3E0E59
:107B5C001E6ECAEC3DF0010E826E000E1B6E000E06
:107B6C001C6E000E1D6E410E1E6ECAEC3DF0000E1A
:107B7C00826E000E1B6E000E1C6EA00E1D6E410E52
:107B8C001E6ECAEC3DF01200000E206E000E1F6E31
:107B9C0011D0000E226E000E216E22BE06D0B80E41
:107BAC00215C0B0E2258D8B003D0214A222AF5D7DB
:107BBC001F4A202A1FC001F020C002F0000E02BE96
:107BCC00FF0E036E046E010E91EC3EF001C00FF03F
:107BDC0002C010F003C011F004C012F01BC013F06F
:107BEC001CC014F01DC015F01EC016F001EC3EF0C8
:107BFC00D8B01200CED7000E0F14176E000E101452
:107C0C00186E800E1114196E7F0E12141A6E175006
:107C1C00181019101A10D8A408D0000E0F6E000EF0
:107C2C00106E000E116E000E126E000E1314176EF5
:107C3C00000E1414186E800E1514196E7F0E161487
:107C4C001A6E1750181019101A10D8A408D0000E5C
:107C5C00136E000E146E000E156E000E166E12AE24
:107C6C001DD00FC017F010C018F011C019F012C0C1
:107C7C001AF0171E181E191E1A1E172A000E18228B
:107C8C0019221A22000E17240F6E000E1820106EE7
:107C9C00000E1920116E800E1A20126E16AE1DD019
:107CAC0013C017F014C018F015C019F016C01AF054
:107CBC00171E181E191E1A1E172A000E182219221A
:107CCC001A22000E1724136E000E1820146E000ECC
:107CDC001920156E800E1A20166E000E0F1A000E4B
:107CEC00101A000E111A800E121A000E131A000E22
:107CFC00141A000E151A800E161A13500F5C14501D
:107D0C0010581550115816501258D8B002D0D8909F
:107D1C001200D8801200096E0950D8A404AE1AD0F3
:107D2C0001C005F002C006F003C007F004C008F063
:107D3C00051E061E071E081E052A000E0622072217
:107D4C00082205C00BF006C00CF007C00DF008C0EF
:107D5C000EF008D001C00BF002C00CF003C00DF007
:107D6C0004C00EF00150021003100410D8A409D066
:107D7C00000E016E000E026E000E036E000E046EFD
:107D8C001200960E0A6E06D00A2AD8900E320D32C8
:107D9C000C320B32000E0B14056E000E0C14066E1A
:107DAC00000E0D14076EFE0E0E14086E0550061014
:107DBC0007100810D8B40DD0E7D70A2A010E0B26ED
:107DCC00000E0C220D220E22D8900E320D320C32E7
:107DDC000B32000E0B14056E000E0C14066E000E0A
:107DEC000D14076EFF0E0E14086E055006100710CA
:107DFC000810D8B407D0E1D70A06D8900B360C3649
:107E0C000D360E360DBE03D0020E0A60F5D70AB041
:107E1C0008D0FF0E0B16FF0E0C167F0E0D16FF0E64
:107E2C000E16D8900A320AC005F0066A076A086A6C
:107E3C0005C008F0076A066A056A05500B12065061
:107E4C000C1207500D1208500E120950D8A404AE93
:107E5C0001D00E8E0BC001F00CC002F00DC003F06F
:107E6C000EC004F0120023682468256826680F0EE3
:107E7C00C16E200E926E9368000E946E000E806E92
:107E8C00000E816E000E826E02D01CEC3DF080BAAA
:107E9C00FCD71CEC3DF04CD003EC3DF0FAD736ECA3
:107EAC003DF0F7D780EC3DF0F4D736EC3DF0F1D750
:107EBC0003EC3DF0EED703EC3DF0EBD75BEC3DF083
:107ECC00E8D7A5EC3DF0E5D703EC3DF0E2D703ECA9
:107EDC003DF0DFD7000E246E010E236E5BEC3DF0FF
:107EEC00000E266E020E256ED4D75BEC3DF0D1D77A
:107EFC0003EC3DF0CED703EC3DF0CBD7A5EC3DF039
:107F0C00C8D75BEC3DF0C5D703EC3DF0C2D703EC12
:107F1C003DF0BFD736EC3DF0BCD780EC3DF0B9D787
:107F2C0036EC3DF003EC3DF0B4D703EC3DF0B1D7AB
:107F3C008150000AD8B4B0D7010AD8B4B0D7030A1C
:107F4C00D8B4B0D7010AD8B4B0D7070AD8B4B0D7D0
:107F5C00010AD8B49ED7030AD8B4ADD7010AD8B455
:107F6C00ADD70F0AD8B4ADD7010AD8B492D7030A4B
:107F7C00D8B48FD7010AD8B48CD7070AD8B4A4D7F1
:107F8C00010AD8B486D7030AD8B4A1D7010AD8B449
:107F9C00A1D71F0AD8B4A9D7010AD8B4A9D7030A04
:107FAC00D8B477D7010AD8B4A6D7070AD8B471D7F2
:107FBC00010AD8B46ED7030AD8B46BD7010AD8B467
:107FCC009DD70F0AD8B49DD7010AD8B49DD7030A00
:107FDC00D8B45FD7010AD8B49AD7070AD8B49AD7BD
:107FEC00010AD8B49AD7030AD8B49AD7010AD8B4DC
:047FFC0099D79BD79F
:020000040020DA
:08000000FFFFFFFFFFFFFFFF00
:020000040030CA
:0E00000000051F1FFF8385FF0FC00FE00F409C
:00000001FF
