:0420000001EF3DF0BF
:107A0200000EF86E000147EF3FF0000E1B6E000EF5
:107A12001C6E480E1D6E420E1E6ED8EC3DF012001A
:107A2200030E826E000E1B6E000E1C6E000E1D6E8B
:107A3200410E1E6ED8EC3DF0000E826E000E1B6EE3
:107A4200000E1C6EA00E1D6E410E1E6ED8EC3DF097
:107A5200120081A002D0808001D0809081A202D049
:107A6200808201D0809281A402D0808401D080944F
:107A720081A602D0808601D0809681A802D080881B
:107A820001D080981200030E826E9A0E1B6E990E20
:107A92001C6E990E1D6E3E0E1E6ED8EC3DF0020E4F
:107AA200826E000E1B6E000E1C6EA00E1D6E400E2E
:107AB2001E6ED8EC3DF0000E826E000E1B6E000EA4
:107AC2001C6EA00E1D6E410E1E6ED8EC3DF0120013
:107AD200030E826E9A0E1B6E990E1C6E990E1D6E0F
:107AE2003E0E1E6ED8EC3DF0010E826E000E1B6E35
:107AF200000E1C6EA00E1D6E400E1E6ED8EC3DF0E8
:107B0200000E826E000E1B6E000E1C6EA00E1D6E0D
:107B1200410E1E6ED8EC3DF01200030E826E9A0EDC
:107B22001B6E990E1C6E990E1D6E3E0E1E6ED8ECCB
:107B32003DF0020E826E000E1B6E000E1C6E000ED9
:107B42001D6E400E1E6ED8EC3DF0000E826E000ED1
:107B52001B6E000E1C6EA00E1D6E410E1E6ED8EC2A
:107B62003DF01200030E826E9A0E1B6E990E1C6E71
:107B7200990E1D6E3E0E1E6ED8EC3DF0010E826E09
:107B8200000E1B6E000E1C6E000E1D6E400E1E6E51
:107B9200D8EC3DF0000E826E000E1B6E000E1C6EC5
:107BA200A00E1D6E410E1E6ED8EC3DF01200000EAE
:107BB200206E000E1F6E11D0000E226E000E216E7E
:107BC20022BE06D0B80E215C0B0E2258D8B003D0CC
:107BD200214A222AF5D71F4A202A1FC001F020C0BD
:107BE20002F0000E02BEFF0E036E046E010E9FEC49
:107BF2003EF001C00FF002C010F003C011F004C04B
:107C020012F01BC013F01CC014F01DC015F01EC0F2
:107C120016F00FEC3EF0D8B01200CED7000E0F14C3
:107C2200176E000E1014186E800E1114196E7F0E4E
:107C320012141A6E1750181019101A10D8A408D05E
:107C4200000E0F6E000E106E000E116E000E126E00
:107C5200000E1314176E000E1414186E800E1514F5
:107C6200196E7F0E16141A6E1750181019101A106A
:107C7200D8A408D0000E136E000E146E000E156EFE
:107C8200000E166E12AE1DD00FC017F010C018F005
:107C920011C019F012C01AF0171E181E191E1A1E52
:107CA200172A000E182219221A22000E17240F6E0C
:107CB200000E1820106E000E1920116E800E1A2070
:107CC200126E16AE1DD013C017F014C018F015C0F6
:107CD20019F016C01AF0171E181E191E1A1E172A9E
:107CE200000E182219221A22000E1724136E000EFB
:107CF2001820146E000E1920156E800E1A20166EB2
:107D0200000E0F1A000E101A000E111A800E121A0F
:107D1200000E131A000E141A000E151A800E161AEF
:107D220013500F5C14501058155011581650125819
:107D3200D8B002D0D8901200D8801200096E095033
:107D4200D8A404AE1AD001C005F002C006F003C0E8
:107D520007F004C008F0051E061E071E081E052AAD
:107D6200000E06220722082205C00BF006C00CF006
:107D720007C00DF008C00EF008D001C00BF002C021
:107D82000CF003C00DF004C00EF0015002100310FD
:107D92000410D8A409D0000E016E000E026E000E6F
:107DA200036E000E046E1200960E0A6E06D00A2AA8
:107DB200D8900E320D320C320B32000E0B14056EBF
:107DC200000E0C14066E000E0D14076EFE0E0E143D
:107DD200086E0550061007100810D8B40DD0E7D76A
:107DE2000A2A010E0B26000E0C220D220E22D8901A
:107DF2000E320D320C320B32000E0B14056E000ED9
:107E02000C14066E000E0D14076EFF0E0E14086E93
:107E12000550061007100810D8B407D0E1D70A069B
:107E2200D8900B360C360D360E360DBE03D0020E30
:107E32000A60F5D70AB008D0FF0E0B16FF0E0C161B
:107E42007F0E0D16FF0E0E16D8900A320AC005F0EC
:107E5200066A076A086A05C008F0076A066A056AC0
:107E620005500B1206500C1207500D1208500E123C
:107E72000950D8A404AE01D00E8E0BC001F00CC084
:107E820002F00DC003F00EC004F012000F0EC16E1E
:107E9200200E926E9368000E946E000E806E000E9D
:107EA200816E000E826E02D02AEC3DF080BAFCD7C1
:107EB2002AEC3DF002D011EC3DF01F0E8118D8A43F
:107EC2003CD0F9D711EC3DF0F3D769EC3DF0F0D797
:107ED200B3EC3DF0EDD7B3EC3DF0EAD711EC3DF059
:107EE200E7D7B3EC3DF0E4D78EEC3DF0E1D78EEC72
:107EF2003DF0DED711EC3DF0DBD744EC3DF0D8D7B6
:107F020044EC3DF0D5D711EC3DF0D2D744EC3DF036
:107F1200CFD78EEC3DF0CCD711EC3DF0C9D7B3EC06
:107F22003DF0C6D7B3EC3DF0C3D769EC3DF011ECA0
:107F32003DF0BED706EC3DF0BBD78150000AD8B465
:107F4200C1D7010AD8B4C1D7030AD8B4C1D7010A2C
:107F5200D8B4C1D7070AD8B4C1D7010AD8B4A8D7B0
:107F6200030AD8B4BED7010AD8B4BED70F0AD8B410
:107F7200BED7010AD8B49CD7030AD8B499D7010A4C
:107F8200D8B496D7070AD8B493D7010AD8B490D7F1
:107F9200030AD8B4AFD7010AD8B4AFD71F0AD8B4EE
:107FA200AFD7010AD8B4AFD7030AD8B481D7010A30
:107FB200D8B47ED7070AD8B47BD7010AD8B478D709
:107FC200030AD8B475D7010AD8B4A0D70F0AD8B417
:107FD200A0D7010AD8B46CD7030AD8B469D7010A6A
:107FE200D8B49AD7070AD8B49AD7010AD8B49AD77C
:0E7FF200030AD8B49AD7010AD8B499D79BD7FE
:020000040020DA
:08000000FFFFFFFFFFFFFFFF00
:020000040030CA
:0E00000000051F1FFF8385FF0FC00FE00F409C
:00000001FF
