:0420000047EF3FF077
:107E8E0000018DEF3FF0000E826E000E026E640E4A
:107E9E00016E6CEC3FF01200030E826E000E026E4D
:107EAE00030E016E6CEC3FF0020E826E000E026E3F
:107EBE00050E016E6CEC3FF0000E826E000E026E2F
:107ECE00140E016E6CEC3FF01200000E056E000EEB
:107EDE00046E11D0000E076E000E066E07BE06D0A1
:107EEE00B80E065C0B0E0758D8B003D0064A072A08
:107EFE00F5D7044A052A0150045C0550800A036E2A
:107F0E000250800A0358D8B01200E4D70F0EC16E8B
:107F1E00200E926E9368000E946E000E806E000E10
:107F2E00816E000E826E02D0BCEC3FF080BAFCD7A0
:107F3E00BCEC3FF081A081B409D081B607D0000E11
:107F4E00826E010E826E020E826EF2D781A081A425
:107F5E0009D081A607D053EC3FF04AEC3FF04AEC33
:107F6E003FF0E6D753EC3FF0E3D781A002D0010EED
:107F7E0001D0000EFF0A016E80500118FE0B011891
:107F8E00806E81A202D0010E01D0000EFF0A016E9A
:107F9E00014680500118FD0B0118806E81A402D09D
:107FAE00010E01D0000EFF0A016E014601468050FF
:107FBE000118FB0B0118806E81A602D0010E01D0B4
:107FCE00000EFF0A016E014601460146805001185F
:107FDE00F70B0118806E81A802D0010E01D0000EA1
:107FEE00FF0A016E013A80500118EF0B0118806EE6
:027FFE0012006F
:020000040020DA
:08000000FFFFFFFFFFFFFFFF00
:020000040030CA
:0E00000000051F1FFF8385FF0FC00FE00F409C
:00000001FF
