:042000004AEF3FF074
:107E94000001B1EF3FF0030E826E000E026E080E79
:107EA400016E90EC3FF0000E826E000E026E140E16
:107EB400016E90EC3FF01200030E826E000E026E13
:107EC400000E016E90EC3FF0010E826E000E026E09
:107ED400050E016E90EC3FF0000E826E000E026EF5
:107EE400140E016E90EC3FF01200030E826E000E31
:107EF400026E000E016E90EC3FF0020E826E000ED8
:107F0400026E050E016E90EC3FF0000E826E000EC4
:107F1400026E140E016E90EC3FF01200000E056E1E
:107F2400000E046E11D0000E076E000E066E07BE22
:107F340006D0B80E065C0B0E0758D8B003D0064A1C
:107F4400072AF5D7044A052A0150045C0550800A23
:107F5400036E0250800A0358D8B01200E4D70F0E03
:107F6400C16E200E926E9368000E946E000E806EA9
:107F7400000E816E000E826E02D0D8EC3FF080BA03
:107F8400FCD7D8EC3FF081B081A405D081B803D0F0
:107F94005EEC3FF0F6D781A081A405D081A803D080
:107FA40077EC3FF0EED74DEC3FF0EBD781A002D059
:107FB400010E01D0000EFF0A016E80500118FE0B65
:107FC4000118806E81A402D0010E01D0000EFF0AB8
:107FD400016E0146014680500118FB0B0118806EAA
:107FE40081A802D0010E01D0000EFF0A016E013AF1
:0C7FF40080500118EF0B0118806E120085
:020000040020DA
:08000000FFFFFFFFFFFFFFFF00
:020000040030CA
:0E00000000051F1FFF8385FF0FC00FE00F409C
:00000001FF
