:0420000088EF3DF038
:107B100000017EEF3EF0030E826E000E026E140E28
:107B2000016E5DEC3EF0000E826E000E026E050EE0
:107B3000016E5DEC3EF01200030E826E000E026ECE
:107B40000A0E016E5DEC3EF0000E826E000E026EBB
:107B50000A0E016E5DEC3EF01200030E826E000E06
:107B6000026E000E016E5DEC3EF0020E826E000EA3
:107B7000026E0F0E016E5DEC3EF0000E826E000E86
:107B8000026E140E016E5DEC3EF01200030E826E6A
:107B9000000E026E000E016E5DEC3EF0020E826E73
:107BA000000E026E040E016E5DEC3EF0000E826E61
:107BB000000E026E080E016E5DEC3EF01200030E28
:107BC000826E000E026E000E016E5DEC3EF0010E44
:107BD000826E000E026E040E016E5DEC3EF0000E31
:107BE000826E000E026E080E016E5DEC3EF0120019
:107BF000030E826E000E026E000E016E5DEC3EF012
:107C0000010E826E000E026E0F0E016E5DEC3EF0F4
:107C1000000E826E000E026E140E016E5DEC3EF0E0
:107C20001200030E826E000E026E000E016E5DECFD
:107C30003EF0020E826E000E026E080E016E5DECCA
:107C40003EF0000E826E000E026E100E016E5DECB4
:107C50003EF01200030E826E000E026E000E016EE8
:107C60005DEC3EF0010E826E000E026E080E016E9B
:107C70005DEC3EF0000E826E000E026E100E016E84
:107C80005DEC3EF0120081A002D0808001D0809097
:107C900081A202D0808201D0809281A402D080840F
:107CA00001D0809481A602D0808601D0809681A8E0
:107CB00002D0808801D080981200000E056E000E60
:107CC000046E11D0000E076E000E066E07BE06D0C1
:107CD000B80E065C0B0E0758D8B003D0064A072A28
:107CE000F5D7044A052A0150045C0550800A036E4A
:107CF0000250800A0358D8B01200E4D7000E0F6E6D
:107D0000010E0E6E000E116E000E106E000E096E4A
:107D1000020E086E000E0B6E020E0A6E0F0EC16E82
:107D2000200E926E9368000E946E000E806E000E10
:107D3000816E000E826E02D043EC3EF080BAFCD71A
:107D400043EC3EF081B081A20DD081B481A60AD06F
:107D500081B808D0F8EC3DF063D0000E0B6E010E38
:107D60000A6EEED781B081A20FD081B481B60CD05B
:107D700081B80AD00A500B10D8A403D011EC3EF001
:107D8000DFD72AEC3EF04CD081B081A20CD081A488
:107D900081A609D081A807D08BEC3DF008C00CF07B
:107DA00009C00DF0DAD781A081B20FD081B481A6CD
:107DB0000CD081A80AD00A500B10D8A403D02AEC0A
:107DC0003EF0BED711EC3EF03AD081A081A208D09F
:107DD00081B481A605D081A803D0ADEC3DF02FD0B1
:107DE00081B081B208D081A481A605D081A803D03A
:107DF000C6EC3DF024D081B081A208D081A481B628
:107E000005D081A803D0DFEC3DF00AD081B081A27B
:107E10000CD081B481B609D081A807D0DFEC3DF049
:107E20000EC00CF00FC00DF098D781B081B20CD00D
:107E300081B481A609D081A807D0C6EC3DF010C05E
:107E40000CF011C00DF089D781A081B20CD081A4B3
:107E500081B609D081A807D0F8EC3DF071D0000EB2
:107E60000B6E000E7DD781A081B20FD081A481A6B8
:107E70000CD081A80AD00A040B10D8A403D011ECAE
:107E80003EF05ED72AEC3EF05BD081A081B20CD0F0
:107E900081B481B609D081B807D08BEC3DF008C021
:107EA0000CF009C00DF0DBD781B081A20FD081A406
:107EB00081B60CD081B80AD00A040B10D8A403D024
:107EC0002AEC3EF03DD711EC3EF02BD081B081B2D0
:107ED00008D081A481B605D081B803D0ADEC3DF0C7
:107EE00020D081A081B208D081B481A605D081B80C
:107EF00003D0DFEC3DF024D081A081A208D081B472
:107F000081B605D081B803D0C6EC3DF00AD081A07F
:107F100081B20CD081A481A609D081B807D0DFEC52
:107F20003DF010C00CF011C00DF099D781A081A2D6
:107F30000CD081A481B609D081B807D0C6EC3DF041
:107F40000EC00CF00FC00DF08AD781A081B223D0F3
:107F500081A481B620D081B81ED00E500C1807E144
:107F60000F500D18D8A403D0F8EC3DF025D01050D8
:107F70000C1807E111500D18D8A403D0ADEC3DF05A
:107F800029D008500C1803E109500D18D8A4D8D6F0
:107F90009CEC3DF02DD081B081A22FD081B481A680
:107FA0002CD081A82AD00E500C180BE10F500D18C0
:107FB000D8A407D0F8EC3DF00EC00CF00FC00DF0C7
:107FC000BFD610500C180BE111500D18D8A407D0D3
:107FD000ADEC3DF010C00CF011C00DF0B1D6085062
:107FE0000C1803E109500D18D8A4AAD69CEC3DF05A
:107FF00008C00CF009C00DF0A3D69CEC3DF0A0D653
:020000040020DA
:08000000FFFFFFFFFFFFFFFF00
:020000040030CA
:0E00000000051F1FFF8385FF0FC00FE00F409C
:00000001FF
