:04200000A8EF3DF018
:107B500000019EEF3EF0030E826E000E026E140EC8
:107B6000016E7DEC3EF0000E826E000E026E050E80
:107B7000016E7DEC3EF01200030E826E000E026E6E
:107B80000A0E016E7DEC3EF0000E826E000E026E5B
:107B90000A0E016E7DEC3EF01200030E826E000EA6
:107BA000026E000E016E7DEC3EF0020E826E000E43
:107BB000026E0F0E016E7DEC3EF0000E826E000E26
:107BC000026E140E016E7DEC3EF01200030E826E0A
:107BD000000E026E000E016E7DEC3EF0020E826E13
:107BE000000E026E040E016E7DEC3EF0000E826E01
:107BF000000E026E080E016E7DEC3EF01200030EC8
:107C0000826E000E026E000E016E7DEC3EF0010EE3
:107C1000826E000E026E040E016E7DEC3EF0000ED0
:107C2000826E000E026E080E016E7DEC3EF01200B8
:107C3000030E826E000E026E000E016E7DEC3EF0B1
:107C4000010E826E000E026E0F0E016E7DEC3EF094
:107C5000000E826E000E026E140E016E7DEC3EF080
:107C60001200030E826E000E026E000E016E7DEC9D
:107C70003EF0020E826E000E026E080E016E7DEC6A
:107C80003EF0000E826E000E026E100E016E7DEC54
:107C90003EF01200030E826E000E026E000E016EA8
:107CA0007DEC3EF0010E826E000E026E080E016E3B
:107CB0007DEC3EF0000E826E000E026E100E016E24
:107CC0007DEC3EF0120081A002D0808001D0809037
:107CD00081A202D0808201D0809281A402D08084CF
:107CE00001D0809481A602D0808601D0809681A8A0
:107CF00002D0808801D080981200000E056E000E20
:107D0000046E11D0000E076E000E066E07BE06D080
:107D1000B80E065C0B0E0758D8B003D0064A072AE7
:107D2000F5D7044A052A0150045C0550800A036E09
:107D30000250800A0358D8B01200E4D7000E0F6E2C
:107D4000010E0E6E000E116E000E106E000E096E0A
:107D5000020E086E0C680D680F0EC16E200E926E3A
:107D60009368000E946E000E806E000E816E000E01
:107D7000826E02D063EC3EF080BAFCD763EC3EF03A
:107D800081B081A20DD081B481A60AD081B808D07B
:107D900018EC3EF063D0000E0D6E010E0C6EEED7A7
:107DA00081B081A20FD081B481B60CD081B80AD045
:107DB0000C500D10D8A403D031EC3EF0DFD74AECC4
:107DC0003EF04CD081B081A20CD081A481A609D014
:107DD00081A807D0ABEC3DF008C00AF009C00BF059
:107DE000DAD781A081B20FD081B481A60CD081A84E
:107DF0000AD00C500D10D8A403D04AEC3EF0BED7E8
:107E000031EC3EF03AD081A081A208D081B481A6A5
:107E100005D081A803D0CDEC3DF02FD081B081B248
:107E200008D081A481A605D081A803D0E6EC3DF05E
:107E300024D081B081A208D081A481B605D081A8C8
:107E400003D0FFEC3DF00AD081B081A20CD081B408
:107E500081B609D081A807D0FFEC3DF00EC00AF032
:107E60000FC00BF098D781B081B20CD081B481A63D
:107E700009D081A807D0E6EC3DF010C00AF011C08F
:107E80000BF089D781A081B20CD081A481B609D032
:107E900081A807D018EC3EF071D0000E0D6E000ED8
:107EA0007DD781A081B20FD081A481A60CD081A8FA
:107EB0000AD00C040D10D8A403D031EC3EF05ED7EC
:107EC0004AEC3EF05BD081A081B20CD081B481B687
:107ED00009D081B807D0ABEC3DF008C00AF009C06A
:107EE0000BF0DBD781B081A20FD081A481B60CD07A
:107EF00081B80AD00C040D10D8A403D04AEC3EF08F
:107F00003DD731EC3EF02BD081B081B208D081A4B6
:107F100081B605D081B803D0CDEC3DF020D081A052
:107F200081B208D081B481A605D081B803D0FFEC1E
:107F30003DF024D081A081A208D081B481B605D0C3
:107F400081B803D0E6EC3DF00AD081A081B20CD01C
:107F500081A481A609D081B807D0FFEC3DF010C004
:107F60000AF011C00BF099D781A081A20CD081A496
:107F700081B609D081B807D0E6EC3DF00EC00AF01A
:107F80000FC00BF08AD781A081B205D081A481B641
:107F900002D081A808D081B081A22FD081B481A65F
:107FA0002CD081A82AD00E500A180BE10F500B18C4
:107FB000D8A407D018EC3EF00EC00AF00FC00BF0AA
:107FC000DDD610500A180BE111500B18D8A407D0B9
:107FD000CDEC3DF010C00AF011C00BF0CFD6085028
:107FE0000A1803E109500B18D8A4C8D6BCEC3DF020
:107FF00008C00AF009C00BF0C1D6BCEC3DF0BED6FB
:020000040020DA
:08000000FFFFFFFFFFFFFFFF00
:020000040030CA
:0E00000000051F1FFF8385FF0FC00FE00F409C
:00000001FF
