:04200000A5EF3CF01C
:10794A00000EF86E0001F9EF3EF0030E826E000E93
:10795A001B6E000E1C6E000E1D6E400E1E6E8AEC13
:10796A003DF0000E826E000E1B6E000E1C6E480E5D
:10797A001D6E430E1E6E8AEC3DF01200030E826EDF
:10798A00000E1B6E000E1C6E000E1D6E400E1E6E4B
:10799A008AEC3DF0000E826E000E1B6E000E1C6E0D
:1079AA00200E1D6E420E1E6E8AEC3DF0120081A062
:1079BA0002D0808001D0809081A202D0808201D042
:1079CA00809281A402D0808401D0809481A602D0C2
:1079DA00808601D0809681A802D0808801D08098C4
:1079EA001200030E826ECD0E1B6ECC0E1C6ECC0ED8
:1079FA001D6E3D0E1E6E8AEC3DF0020E826E000E6A
:107A0A001B6E000E1C6EA00E1D6E410E1E6E8AECC1
:107A1A003DF0000E826E000E1B6E000E1C6E200ED4
:107A2A001D6E420E1E6E8AEC3DF01200030E826E2F
:107A3A00CD0E1B6ECC0E1C6ECC0E1D6E3D0E1E6E38
:107A4A008AEC3DF0010E826E000E1B6E000E1C6E5B
:107A5A00A00E1D6E410E1E6E8AEC3DF0000E826E67
:107A6A00000E1B6E000E1C6E200E1D6E420E1E6E48
:107A7A008AEC3DF01200030E826ECD0E1B6ECC0E08
:107A8A001C6ECC0E1D6E3D0E1E6E8AEC3DF0020E73
:107A9A00826E000E1B6E000E1C6E000E1D6E410ED5
:107AAA001E6E8AEC3DF0000E826E000E1B6E000EFA
:107ABA001C6EC80E1D6E420E1E6E8AEC3DF0120040
:107ACA00030E826ECD0E1B6ECC0E1C6ECC0E1D6E7E
:107ADA003D0E1E6E8AEC3DF0010E826E000E1B6E8C
:107AEA00000E1C6E000E1D6E410E1E6E8AEC3DF0DD
:107AFA00000E826E000E1B6E000E1C6EC80E1D6EEE
:107B0A00420E1E6E8AEC3DF01200000E206E000E30
:107B1A001F6E11D0000E226E000E216E22BE06D0FC
:107B2A00B80E215C0B0E2258D8B003D0214A222A63
:107B3A00F5D71F4A202A1FC001F020C002F0000E0C
:107B4A0002BEFF0E036E046E010E51EC3EF001C040
:107B5A000FF002C010F003C011F004C012F01BC0F5
:107B6A0013F01CC014F01DC015F01EC016F0C1ECB5
:107B7A003DF0D8B01200CED7000E0F14176E000ECB
:107B8A001014186E800E1114196E7F0E12141A6ECC
:107B9A001750181019101A10D8A408D0000E0F6E1A
:107BAA00000E106E000E116E000E126E000E1314EF
:107BBA00176E000E1414186E800E1514196E7F0EAF
:107BCA0016141A6E1750181019101A10D8A408D0C3
:107BDA00000E136E000E146E000E156E000E166E59
:107BEA0012AE1DD00FC017F010C018F011C019F056
:107BFA0012C01AF0171E181E191E1A1E172A000E76
:107C0A00182219221A22000E17240F6E000E1820AD
:107C1A00106E000E1920116E800E1A20126E16AE0A
:107C2A001DD013C017F014C018F015C019F016C0F3
:107C3A001AF0171E181E191E1A1E172A000E1822CD
:107C4A0019221A22000E1724136E000E1820146E21
:107C5A00000E1920156E800E1A20166E000E0F1ACD
:107C6A00000E101A000E111A800E121A000E131AA4
:107C7A00000E141A000E151A800E161A13500F5CF5
:107C8A00145010581550115816501258D8B002D026
:107C9A00D8901200D8801200096E0950D8A404AEF8
:107CAA001AD001C005F002C006F003C007F004C0F4
:107CBA0008F0051E061E071E081E052A000E0622CB
:107CCA000722082205C00BF006C00CF007C00DF011
:107CDA0008C00EF008D001C00BF002C00CF003C0BF
:107CEA000DF004C00EF00150021003100410D8A4C5
:107CFA0009D0000E016E000E026E000E036E000E19
:107D0A00046E1200960E0A6E06D00A2AD8900E3217
:107D1A000D320C320B32000E0B14056E000E0C14D1
:107D2A00066E000E0D14076EFE0E0E14086E055038
:107D3A00061007100810D8B40DD0E7D70A2A010E8A
:107D4A000B26000E0C220D220E22D8900E320D3276
:107D5A000C320B32000E0B14056E000E0C14066E5C
:107D6A00000E0D14076EFF0E0E14086E0550061055
:107D7A0007100810D8B407D0E1D70A06D8900B36F6
:107D8A000C360D360E360DBE03D0020E0A60F5D73C
:107D9A000AB008D0FF0E0B16FF0E0C167F0E0D163A
:107DAA00FF0E0E16D8900A320AC005F0066A076A54
:107DBA00086A05C008F0076A066A056A05500B12C8
:107DCA0006500C1207500D1208500E120950D8A472
:107DDA0004AE01D00E8E0BC001F00CC002F00DC033
:107DEA0003F00EC004F012000F0EC16E200E926E48
:107DFA009368000E946E000E806E000E816E000E67
:107E0A00826E02D0DCEC3CF080BAFCD7DCEC3CF0B1
:107E1A00E6D081B418D081A681B803D0C3EC3CF077
:107E2A00F5D781A681A803D01BEC3DF0EFD781B628
:107E3A0081B803D065EC3DF0E9D781B681A8E6D7D1
:107E4A001BEC3DF0E3D781A4E1D781A681B803D02A
:107E5A00C3EC3CF0DBD781A681A803D0AAEC3CF0A6
:107E6A00D5D781B681B803D065EC3DF0CFD781B6BE
:107E7A0081A8CCD7F6EC3CF0C9D781B418D081A63A
:107E8A0081B803D040EC3DF0C1D781A681A803D0C8
:107E9A00AAEC3CF0BBD781B681B803D0AAEC3CF07F
:107EAA00B5D781B681A8B2D7AAEC3CF0AFD781A4E6
:107EBA00ADD781A681B803D040EC3DF0A7D781A603
:107ECA0081A803D0AAEC3CF0A1D781B681B803D02F
:107EDA00C3EC3CF09BD781B681A898D7F6EC3CF06E
:107EEA0095D781A202D0010E01D0000E000AD8B4A3
:107EFA0090D7010AD8B4C1D789D781B418D081A63E
:107F0A0081B803D0F6EC3CF081D781A681A803D0D2
:107F1A00C3EC3CF07BD781B681B803D0AAEC3CF025
:107F2A0075D781B681A872D740EC3DF06FD781A48E
:107F3A006DD781A681B803D0AAEC3CF067D781A699
:107F4A0081A803D0AAEC3CF061D781B681B803D0EE
:107F5A00AAEC3CF05BD781B681A858D740EC3DF03B
:107F6A0055D781B418D081A681B803D0F6EC3CF07D
:107F7A004DD781A681A803D065EC3DF047D781B6DD
:107F8A0081B803D0AAEC3CF041D781B681A83ED78C
:107F9A00C3EC3CF03BD781A439D781A681B803D082
:107FAA001BEC3DF033D781A681A803D065EC3DF0E8
:107FBA002DD781A602D081A829D781B681A826D734
:107FCA00C3EC3CF023D781A202D0010E01D0000EEF
:107FDA00000AD8B492D7010AD8B4C3D717D781A058
:107FEA0002D0010E01D0000E000AD8B47AD7010AD5
:067FFA00D8B4E9D70BD753
:020000040020DA
:08000000FFFFFFFFFFFFFFFF00
:020000040030CA
:0E00000000051F1FFF8385FF0FC00FE00F409C
:00000001FF
