:042000009CEF3EF023
:107D3800000EF86E000151EF3FF0030E826E000E48
:107D4800026E080E016E30EC3FF0000E826E000EDF
:107D5800026E140E016E30EC3FF01200030E826EBC
:107D6800000E026E000E016E30EC3FF0010E826EC6
:107D7800000E026E050E016E30EC3FF0000E826EB2
:107D8800000E026E140E016E30EC3FF01200030E6E
:107D9800826E000E026E000E016E30EC3FF0020E95
:107DA800826E000E026E050E016E30EC3FF0000E82
:107DB800826E000E026E140E016E30EC3FF012005F
:107DC800030E826E000E026E000E016E30EC3FF064
:107DD800010E826E000E026E020E016E30EC3FF054
:107DE800000E826E000E026E140E016E30EC3FF033
:107DF8001200030E826E000E026E000E016E30EC51
:107E08003FF0020E826E000E026E020E016E30EC22
:107E18003FF0000E826E000E026E140E016E30EC02
:107E28003FF0120081A002D0808001D0809081A212
:107E380002D0808201D0809281A402D0808401D0B7
:107E4800809481A602D0808601D0809681A802D035
:107E5800808801D080981200000E056E000E046E16
:107E680011D0000E076E000E066E07BE06D0B80EC3
:107E7800065C0B0E0758D8B003D0064A072AF5D778
:107E8800044A052A0150045C0550800A036E02501A
:107E9800800A0358D8B01200E4D70F0EC16E200E26
:107EA800926E9368000E946E000E806E000E816EC6
:107EB800000E826E02D016EC3FF080BAFCD716ECAA
:107EC8003FF038D0A1EC3EF0FAD7B2EC3EF0F7D74D
:107ED800E4EC3EF0F4D7E4EC3EF0F1D7A1EC3EF050
:107EE800EED7E4EC3EF0EBD7FDEC3EF0E8D7FDEC46
:107EF8003EF0E5D7FDEC3EF0E2D7A1EC3EF0DFD74F
:107F0800CBEC3EF0DCD7CBEC3EF0D9D7A1EC3EF081
:107F1800D6D7FDEC3EF0D3D7A1EC3EF0D0D7E4ECB9
:107F28003EF0CDD7B2EC3EF0A1EC3EF0C8D7A1ECC4
:107F38003EF0C5D78150000AD8B4C4D7010AD8B4D6
:107F4800C4D7030AD8B4C4D7010AD8B4C4D7070A17
:107F5800D8B4C4D7010AD8B4B2D7030AD8B4C1D7A1
:107F6800010AD8B4C1D70F0AD8B4C1D7010AD8B406
:107F7800A6D7030AD8B4A3D7010AD8B4A0D7070A4A
:107F8800D8B4B8D7010AD8B49AD7030AD8B4B5D7A1
:107F9800010AD8B4B5D71F0AD8B4B5D7010AD8B4DE
:107FA800B5D7030AD8B48BD7010AD8B488D7070A3B
:107FB800D8B485D7010AD8B482D7030AD8B47FD7F2
:107FC800010AD8B47CD70F0AD8B4A3D7010AD8B409
:107FD80076D7030AD8B473D7010AD8B49DD7070A4D
:107FE800D8B49DD7010AD8B46AD7030AD8B49AD7A7
:087FF800010AD8B499D79BD708
:020000040020DA
:08000000FFFFFFFFFFFFFFFF00
:020000040030CA
:0E00000000051F1FFF8385FF0FC00FE00F409C
:00000001FF
