:042000004CEF3FF072
:107E9800000192EF3FF0000E826E000E026E640E3B
:107EA800016E71EC3FF01200030E826E000E026E3E
:107EB800030E016E71EC3FF0020E826E000E026E30
:107EC800050E016E71EC3FF0000E826E000E026E20
:107ED800140E016E71EC3FF01200000E056E000EDC
:107EE800046E11D0000E076E000E066E07BE06D097
:107EF800B80E065C0B0E0758D8B003D0064A072AFE
:107F0800F5D7044A052A0150045C0550800A036E1F
:107F18000250800A0358D8B01200E4D70F0EC16E81
:107F2800200E926E9368000E946E000E806E000E06
:107F3800816E000E826E02D0BCEC3FF080BAFCD796
:107F4800BCEC3FF081A081B402D081A6F9D781A012
:107F580081A409D081A607D058EC3FF04FEC3FF040
:107F68004FEC3FF0EDD758EC3FF04FEC3FF0E8D73F
:107F780081A002D0010E01D0000EFF0A016E8050D0
:107F88000118FE0B0118806E81A202D0010E01D0EB
:107F9800000EFF0A016E014680500118FD0B011802
:107FA800806E81A402D0010E01D0000EFF0A016E7E
:107FB8000146014680500118FB0B0118806E81A60E
:107FC80002D0010E01D0000EFF0A016E01460146E3
:107FD800014680500118F70B0118806E81A802D065
:107FE800010E01D0000EFF0A016E013A80500118FF
:087FF800EF0B0118806E12006E
:020000040020DA
:08000000FFFFFFFFFFFFFFFF00
:020000040030CA
:0E00000000051F1FFF8385FF0FC00FE00F409C
:00000001FF
