:042000000AEF3DF0B6
:107A1400000EF86E000145EF3FF0030E826E000E7B
:107A24001B6E000E1C6E000E1D6E400E1E6ED6ECFC
:107A34003DF0000E826E000E1B6E000E1C6EFA0EE0
:107A44001D6E430E1E6ED6EC3DF0120081A002D0D6
:107A5400808001D0809081A202D0808201D0809267
:107A640081A402D0808401D0809481A602D0808633
:107A740001D0809681A802D0808801D0809812001D
:107A8400030E826ECD0E1B6ECC0E1C6ECC0E1D6EC4
:107A94003D0E1E6ED6EC3DF0020E826E000E1B6E85
:107AA400000E1C6E200E1D6E410E1E6ED6EC3DF0B7
:107AB400000E826E000E1B6E000E1C6EFA0E1D6E02
:107AC400430E1E6ED6EC3DF01200030E826ECD0EF8
:107AD4001B6ECC0E1C6ECC0E1D6E3D0E1E6ED6ECB7
:107AE4003DF0010E826E000E1B6E000E1C6E200E09
:107AF4001D6E410E1E6ED6EC3DF0000E826E000E21
:107B04001B6E000E1C6EFA0E1D6E430E1E6ED6EC1E
:107B14003DF01200030E826ECD0E1B6ECC0E1C6E59
:107B2400CC0E1D6E3D0E1E6ED6EC3DF0020E826E26
:107B3400000E1B6E000E1C6EA00E1D6E400E1E6EFF
:107B4400D6EC3DF0000E826E000E1B6E000E1C6E15
:107B5400FA0E1D6E430E1E6ED6EC3DF01200030E9F
:107B6400826ECD0E1B6ECC0E1C6ECC0E1D6E3D0EA9
:107B74001E6ED6EC3DF0010E826E000E1B6E000EE2
:107B84001C6EA00E1D6E400E1E6ED6EC3DF0000E57
:107B9400826E000E1B6E000E1C6EFA0E1D6E430EDE
:107BA4001E6ED6EC3DF01200000E206E000E1F6E0D
:107BB40011D0000E226E000E216E22BE06D0B80E29
:107BC400215C0B0E2258D8B003D0214A222AF5D7C3
:107BD4001F4A202A1FC001F020C002F0000E02BE7E
:107BE400FF0E036E046E010E9DEC3EF001C00FF01B
:107BF40002C010F003C011F004C012F01BC013F057
:107C04001CC014F01DC015F01EC016F00DEC3EF0A3
:107C1400D8B01200CED7000E0F14176E000E101439
:107C2400186E800E1114196E7F0E12141A6E1750EE
:107C3400181019101A10D8A408D0000E0F6E000ED8
:107C4400106E000E116E000E126E000E1314176EDD
:107C5400000E1414186E800E1514196E7F0E16146F
:107C64001A6E1750181019101A10D8A408D0000E44
:107C7400136E000E146E000E156E000E166E12AE0C
:107C84001DD00FC017F010C018F011C019F012C0A9
:107C94001AF0171E181E191E1A1E172A000E182273
:107CA40019221A22000E17240F6E000E1820106ECF
:107CB400000E1920116E800E1A20126E16AE1DD001
:107CC40013C017F014C018F015C019F016C01AF03C
:107CD400171E181E191E1A1E172A000E1822192202
:107CE4001A22000E1724136E000E1820146E000EB4
:107CF4001920156E800E1A20166E000E0F1A000E33
:107D0400101A000E111A800E121A000E131A000E09
:107D1400141A000E151A800E161A13500F5C145004
:107D240010581550115816501258D8B002D0D89087
:107D34001200D8801200096E0950D8A404AE1AD0DB
:107D440001C005F002C006F003C007F004C008F04B
:107D5400051E061E071E081E052A000E06220722FF
:107D6400082205C00BF006C00CF007C00DF008C0D7
:107D74000EF008D001C00BF002C00CF003C00DF0EF
:107D840004C00EF00150021003100410D8A409D04E
:107D9400000E016E000E026E000E036E000E046EE5
:107DA4001200960E0A6E06D00A2AD8900E320D32B0
:107DB4000C320B32000E0B14056E000E0C14066E02
:107DC400000E0D14076EFE0E0E14086E05500610FC
:107DD40007100810D8B40DD0E7D70A2A010E0B26D5
:107DE400000E0C220D220E22D8900E320D320C32CF
:107DF4000B32000E0B14056E000E0C14066E000EF2
:107E04000D14076EFF0E0E14086E055006100710B1
:107E14000810D8B407D0E1D70A06D8900B360C3630
:107E24000D360E360DBE03D0020E0A60F5D70AB029
:107E340008D0FF0E0B16FF0E0C167F0E0D16FF0E4C
:107E44000E16D8900A320AC005F0066A076A086A54
:107E540005C008F0076A066A056A05500B12065049
:107E64000C1207500D1208500E120950D8A404AE7B
:107E740001D00E8E0BC001F00CC002F00DC003F057
:107E84000EC004F012000F0EC16E200E926E9368A5
:107E9400000E946E000E806E000E816E000E826ED7
:107EA40002D028EC3DF080BAFCD728EC3DF044D059
:107EB4000FEC3DF0FAD742EC3DF0F7D78CEC3DF0F7
:107EC400F4D742EC3DF0F1D70FEC3DF0EED70FECD8
:107ED4003DF0EBD767EC3DF0E8D7B1EC3DF0E5D7EA
:107EE4000FEC3DF0E2D70FEC3DF0DFD767EC3DF04F
:107EF400DCD767EC3DF0D9D70FEC3DF0D6D70FECCB
:107F04003DF0D3D7B1EC3DF0D0D767EC3DF0CDD701
:107F14000FEC3DF0CAD70FEC3DF0C7D742EC3DF073
:107F2400C4D78CEC3DF0C1D742EC3DF00FEC3DF0F2
:107F3400BCD70FEC3DF0B9D78150000AD8B4B8D7FC
:107F4400010AD8B4B8D7030AD8B4B8D7010AD8B448
:107F5400B8D7070AD8B4B8D7010AD8B4A6D7030A41
:107F6400D8B4B5D7010AD8B4B5D70F0AD8B4B5D7A1
:107F7400010AD8B49AD7030AD8B497D7010AD8B457
:107F840094D7070AD8B4ACD7010AD8B48ED7030A59
:107F9400D8B4A9D7010AD8B4A9D71F0AD8B4A9D785
:107FA400010AD8B4A9D7030AD8B47FD7010AD8B430
:107FB400A6D7070AD8B479D7010AD8B476D7030A62
:107FC400D8B473D7010AD8B49DD70F0AD8B49DD7B3
:107FD400010AD8B49DD7030AD8B467D7010AD8B424
:107FE4009AD7070AD8B49AD7010AD8B49AD7030AF9
:0C7FF400D8B49AD7010AD8B499D79BD70B
:020000040020DA
:08000000FFFFFFFFFFFFFFFF00
:020000040030CA
:0E00000000051F1FFF8385FF0FC00FE00F409C
:00000001FF
