:042000002CEF3FF092
:107E5800000EF86E00017DEF3FF0030E826E000EFB
:107E6800026E080E016E5CEC3FF0000E826E000E92
:107E7800026E140E016E5CEC3FF0120081A002D07D
:107E8800808001D0809081A202D0808201D080922F
:107E980081A402D0808401D0809481A602D08086FB
:107EA80001D0809681A802D0808801D080981200E5
:107EB800000E056E000E046E11D0000E076E000E47
:107EC800066E07BE06D0B80E065C0B0E0758D8B073
:107ED80003D0064A072AF5D7044A052A0150045C4C
:107EE8000550800A036E0250800A0358D8B0120069
:107EF800E4D70F0EC16E200E926E9368000E946E3A
:107F0800000E806E000E816E000E826E02D042EC72
:107F18003FF080BAFCD742EC3FF00CD031EC3FF098
:107F2800FAD731EC3FF0F7D731EC3FF0F4D731EC2A
:107F38003FF0F1D78150000AD8B4F0D7010AD8B47D
:107F4800EAD7030AD8B4E7D7010AD8B4E4D7070AAE
:107F5800D8B4E7D7010AD8B4DED7030AD8B4DBD738
:107F6800010AD8B4D8D70F0AD8B4D5D7010AD8B4DB
:107F7800D2D7030AD8B4CFD7010AD8B4CCD7070AC6
:107F8800D8B4C9D7010AD8B4C6D7030AD8B4C3D756
:107F9800010AD8B4C0D71F0AD8B4BDD7010AD8B4CB
:107FA800BAD7030AD8B4B7D7010AD8B4B4D7070ADE
:107FB800D8B4B1D7010AD8B4AED7030AD8B4ABD76E
:107FC800010AD8B4A8D70F0AD8B4A5D7010AD8B4DB
:107FD800A2D7030AD8B49FD7010AD8B4A5D7070AED
:107FE800D8B499D7010AD8B496D7030AD8B493D786
:087FF800010AD8B49CD78FD711
:020000040020DA
:08000000FFFFFFFFFFFFFFFF00
:020000040030CA
:0E00000000051F1FFF8385FF0FC00FE00F409C
:00000001FF
