:0420000092EF3FF02C
:107F2400000195EF3FF00F0EC16E200E926E936824
:107F3400000E946E000E806E000E816E000E826E36
:107F440002D0C5EC3FF080BAFCD7C5EC3FF0ACECF6
:107F54003FF0FBD7030E826E000E026E000E016E20
:107F6400DFEC3FF0020E826E000E026E020E016E16
:107F7400DFEC3FF0000E826E000E026E140E016EF6
:107F8400DFEC3FF0120081A002D0808001D080900D
:107F940081A202D0808201D0809281A402D0808408
:107FA40001D0809481A602D0808601D0809681A8D9
:107FB40002D0808801D080981200000E056E000E59
:107FC400046E11D0000E076E000E066E07BE06D0BA
:107FD400B80E065C0B0E0758D8B003D0064A072A21
:107FE400F5D7044A052A0150045C0550800A036E43
:0C7FF4000250800A0358D8B01200E4D7F5
:020000040020DA
:08000000FFFFFFFFFFFFFFFF00
:020000040030CA
:0E00000000051F1FFF8385FF0FC00FE00F409C
:00000001FF
